:100000000C9434000C9446000C9446000C9446006A
:100010000C9446000C9446000C9446000C94460048
:100020000C9446000C9446000C9446000C94460038
:100030000C9446000C9446000C94EF000C9446007F
:100040000C9448000C9446000C9446000C94460016
:100050000C9446000C94FE000C9446000C94460050
:100060000C9446000C94460011241FBECFEFD8E03C
:10007000DEBFCDBF21E0A0E0B1E001C01D92A03104
:10008000B207E1F70E9413010C943F010C940000A9
:100090001F920F920FB60F9211242F933F934F93FD
:1000A0005F936F937F938F939F9386B186958F71A4
:1000B00090E0909303018093020120910801309118
:1000C00009013093050120930401409106015091EC
:1000D0000701509301014093000160910A01709162
:1000E0000B01861B970B9093070180930601BC01BF
:1000F000641B750B260F371F820F931F9093090106
:1001000080930801863F91053CF085EF90E0909345
:1001100009018093080108C00A9734F48AE090E04E
:1001200090930901809308018091080187BD83B1F4
:1001300087708330A9F028F4813049F08230C9F00B
:100140003CC0853089F138F18630E1F036C088E472
:100150008BB984E490E090930D0180930C0132C040
:1001600080E68BB980E590E090930D0180930C01BF
:1001700029C084E28BB984E190E090930D018093D3
:100180000C0120C084E88BB984E490E090930D01C9
:1001900080930C0117C080E98BB980E590E09093C3
:1001A0000D0180930C010EC088E18BB984E190E0D1
:1001B00090930D0180930C0105C01BB810920D01A6
:1001C00010920C019F918F917F916F915F914F9150
:1001D0003F912F910F900FBE0F901F9018951F9277
:1001E0000F920FB60F9211248F9380910C018BB94F
:1001F0008F910F900FBE0F901F9018951F920F9226
:100200000FB60F9211248F939F938091790090E005
:1002100090930B0180930A019F918F910F900FBED5
:100220000F901F90189510920301109202011092E6
:100230000101109200011092050110920401109228
:10024000070110920601109209011092080114B8DA
:1002500017B88FEF8AB980E88FBF83E084BD92E042
:1002600095BD9AE097BD80936E0085BB80E6809334
:100270007C0010927B008FEE80937A00FFCFF89481
:02028000FFCFAE
:00000001FF
